:100000000C9462000C948A000C948A000C948A0070
:100010000C948A000C948A000C948A000C948A0038
:100020000C948A000C948A000C948A000C948A0028
:100030000C948A000C948A000C948A000C948A0018
:100040000C94D3040C948A000C94A1040C947B04AB
:100050000C948A000C948A000C948A000C948A00F8
:100060000C948A000C948A000000000024002700F1
:100070002A0000000000250028002B0000000000DE
:1000800023002600290004040404040404040202DA
:100090000202020203030303030301020408102007
:1000A0004080010204081020010204081020000012
:1000B0000008000201000003040700000000000027
:1000C0000000A30811241FBECFEFD8E0DEBFCDBFD4
:1000D00011E0A0E0B1E0E0E2FAE102C005900D928B
:1000E000AC3AB107D9F722E0ACEAB1E001C01D9209
:1000F000A037B207E1F710E0C2E6D0E004C02197D4
:10010000FE010E94F208C136D107C9F70E941D0501
:100110000C940E0D0C94000080E480937C00809180
:100120007A00806480937A0080917A0086FDFCCF0B
:10013000809178002091790090E0922B08952FB75C
:10014000F8948091C9019091CA01A091CB01B0911E
:10015000CC012FBF8093D5019093D601A093D701F6
:10016000B093D801E091CD01F091CE010680F781E6
:10017000E02D8DEC91E0099597FF26C02FB7F894FC
:100180008091C9019091CA01A091CB01B091CC019D
:100190002FBF4091D5015091D6016091D701709148
:1001A000D801841B950BA60BB70B4091D101509140
:1001B000D2016091D3017091D40184179507A607ED
:1001C000B70780F28FEF9FEF08950895CF92DF92E7
:1001D000EF92FF920F931F93CF93DF936C017A01FD
:1001E0008B01C0E0D0E0CE15DF0589F0D8016D911C
:1001F0008D01D601ED91FC910190F081E02DC601B9
:100200000995892B11F47E0102C02196ECCFC7011C
:10021000DF91CF911F910F91FF90EF90DF90CF90E2
:100220000895FC01918D828D981761F0828DDF0118
:10023000A80FB11D5D968C91928D9F5F9F73928FD9
:1002400090E008958FEF9FEF0895FC01918D828DCE
:10025000981731F0828DE80FF11D858D90E008959B
:100260008FEF9FEF0895FC01918D228D892F90E0F3
:10027000805C9F4F821B91098F73992708958DECA5
:1002800091E00E94330121E0892B09F420E0822FC4
:100290000895FC01848DDF01A80FB11DA35ABF4F43
:1002A0002C91848D90E001968F739927848FA68975
:1002B000B7892C93A089B1898C9180648C93938D9C
:1002C000848D981306C00288F389E02D80818F7D8C
:1002D00080830895EF92FF920F931F93CF93DF9344
:1002E000EC0181E0888F9B8D8C8D981305C0E88987
:1002F000F989808185FD24C0F62E0B8D10E00F5FFB
:100300001F4F0F731127E02E8C8DE8120CC00FB613
:1003100007FCFACFE889F989808185FFF5CFCE0106
:100320000E944901F1CF8B8DFE01E80FF11DE35AC8
:10033000FF4FF0820B8FEA89FB898081806207C0C2
:10034000EE89FF896083E889F989808180648083F0
:1003500081E090E0DF91CF911F910F91FF90EF909E
:100360000895CF93DF93EC01888D8823C9F0EA8943
:10037000FB89808185FD05C0A889B9898C9186FD9E
:100380000FC00FB607FCF5CF808185FFF2CFA8899B
:10039000B9898C9185FFEDCFCE010E944901E7CF4D
:1003A000DF91CF91089580E090E0892B29F00E94A1
:1003B0003F0181110C9400000895833081F028F4EE
:1003C000813099F08230A1F008958730A9F088300B
:1003D000B9F08430D1F4809180008F7D03C080918A
:1003E00080008F7780938000089584B58F7702C056
:1003F00084B58F7D84BD08958091B0008F7703C050
:100400008091B0008F7D8093B0000895CF93DF93EB
:10041000282F30E0F901E255FF4F8491F901E656AB
:10042000FF4FD491F901EA57FF4FC491CC2391F0CB
:1004300081110E94DD01EC2FF0E0EE0FFF1FE45868
:10044000FF4FA591B491EC91ED2381E090E021F470
:1004500080E002C080E090E0DF91CF9108951F938B
:10046000CF93DF93282F30E0F901E255FF4F8491BD
:10047000F901E656FF4FD491F901EA57FF4FC491B5
:10048000CC23C9F0162F81110E94DD01EC2FF0E082
:10049000EE0FFF1FEE58FF4FA591B4918FB7F89460
:1004A000111105C09C91ED2FE095E92302C0EC915C
:1004B000ED2BEC938FBFDF91CF911F910895CF93D8
:1004C000DF9390E0FC01E656FF4F2491FC01EA57D0
:1004D000FF4F8491882361F190E0880F991FFC0100
:1004E000E859FF4FC591D491FC01EE58FF4FA591FB
:1004F000B491611109C09FB7F89488812095822337
:100500008883EC912E230BC0623061F49FB7F8947E
:100510003881822F809583238883EC912E2B2C9316
:100520009FBF06C08FB7F894E8812E2B28838FBF1A
:10053000DF91CF9108954F925F926F927F92AF9229
:10054000BF92CF92DF92EF92FF921F93CF93DF93F0
:10055000C0E0D0E083E0E82EF12C9FE0C92ED12C42
:100560002BE8A22EBB24B394412C512C320143948E
:1005700060E08BE00E942F0261E08BE00E945F024E
:10058000C7010197F1F760E08BE00E945F02C601AE
:100590000197F1F78BE00E940602F5013197F1F720
:1005A000892B61F0D301C2010C2E04C0880F991F62
:1005B000AA1FBB1F0A94D2F7182B0CC0D301C2018B
:1005C0000C2E04C0880F991FAA1FBB1F0A94D2F7D4
:1005D000809518232196C830D10551F6812FDF91DF
:1005E000CF911F91FF90EF90DF90CF90BF90AF9091
:1005F0007F906F905F904F900895CF92DF92EF922F
:10060000FF920F931F93CF93DF93C0E0D0E093E06E
:10061000E92EF12C082F10E02BE3C22EDD24D39419
:1006200060E08BE00E942F0261E08BE00E945F029D
:10063000C7010197F1F7B8010C2E02C075956795B7
:100640000A94E2F7617077278BE00E942F02C601BF
:100650000197F1F760E08BE00E945F02C70101970C
:10066000F1F72196C830D105D9F6DF91CF911F91CE
:100670000F91FF90EF90DF90CF90089560E08BE0B6
:100680000E942F0261E08BE00E945F028BEC97E0FA
:100690000197F1F760E08BE00E945F028BE891E048
:1006A0000197F1F78BE00E940602892B31F48BE36E
:1006B00096E00197F1F781E0089580E00895CF93E7
:1006C0000E943E03811102C0C0E027C08CEC0E9452
:1006D000FD0284E40E94FD020E949B028823E1F354
:1006E0000E943E03C82F882379F38CEC0E94FD0200
:1006F0008EEB0E94FD020E949B0290E090936B02A1
:1007000080936A020E949B0220916A0230916B02E0
:10071000382B30936B0220936A028C2FCF9108956F
:10072000CF93DF93EC016A8182E00E942F026C81FB
:1007300083E00E942F026E8184E00E942F02688570
:1007400085E00E942F026A8586E00E942F026C8558
:1007500087E00E942F026E8588E00E942F02688940
:1007600089E0DF91CF910C942F02009769F0FC0192
:1007700001900020E9F73197AF01481B590BBC01EC
:100780008DEC91E00C94E60080E090E008958F926B
:100790009F92AF92BF920F931F93CF93DF93CDB7EA
:1007A000DEB7A1970FB6F894DEBF0FBECDBF19A27A
:1007B000423008F44AE08E010F5D1F4F842E912CC9
:1007C000A12CB12CA50194010E94D008E62FB901FB
:1007D000CA0101501109EA3014F4E05D01C0E95C7E
:1007E000D801EC93232B242B252B61F7C8010E9401
:1007F000B503A1960FB6F894DEBF0FBECDBFDF9153
:10080000CF911F910F91BF90AF909F908F900895BF
:100810000E94950BFC0124813581232B31F421E0CA
:1008200061157105A1F0FB0108C0FC018081918177
:100830006115710531F421E0FC018081882339F0D4
:1008400005C00E94A30B21E0892B09F020E0822F34
:1008500008950F931F93CF93DF93EC0188819981C3
:10086000009729F02A813B812617370788F48B01EE
:100870006F5F7F4F0E94CB0A009761F09983888356
:100880001B830A832C813D81232B11F4FC011082F0
:1008900081E001C080E0DF91CF911F910F91089519
:1008A000EF92FF920F931F93CF93DF93EC017B01A5
:1008B0008A01BA010E9429042881398181110DC061
:1008C0002115310519F0C9010E94330A19821882D5
:1008D0001D821C821B821A8206C01D830C83B701F5
:1008E000C9010E94AC0BCE01DF91CF911F910F91F6
:1008F000FF90EF9008951F920F920FB60F92112460
:100900002F933F934F935F936F937F938F939F9317
:10091000AF93BF93EF93FF938DEC91E00E94490159
:10092000FF91EF91BF91AF919F918F917F916F91C7
:100930005F914F913F912F910F900FBE0F901F909D
:1009400018951F920F920FB60F9211242F938F9329
:100950009F93EF93FF93E091DD01F091DE018081A1
:10096000E091E301F091E40182FD12C09081809159
:10097000E6018F5F8F732091E701821751F0E091BC
:10098000E601F0E0E353FE4F958F8093E60101C04E
:100990008081FF91EF919F918F912F910F900FBECA
:1009A0000F901F9018951F920F920FB60F9211245F
:1009B0002F933F938F939F93AF93BF938091C901E0
:1009C0009091CA01A091CB01B091CC013091B001BE
:1009D00023E0230F2D3720F40196A11DB11D05C082
:1009E00026E8230F0296A11DB11D2093B00180932C
:1009F000C9019093CA01A093CB01B093CC0180911F
:100A0000AC019091AD01A091AE01B091AF01019602
:100A1000A11DB11D8093AC019093AD01A093AE01D7
:100A2000B093AF01BF91AF919F918F913F912F9163
:100A30000F900FBE0F901F901895CF93DF93CDB7F7
:100A4000DEB72E970FB6F894DEBF0FBECDBF7894F9
:100A500084B5826084BD84B5816084BD85B58260C3
:100A600085BD85B5816085BD80916E008160809374
:100A70006E001092810080918100826080938100DD
:100A800080918100816080938100809180008160ED
:100A9000809380008091B10084608093B100809148
:100AA000B00081608093B00080917A008460809370
:100AB0007A0080917A00826080937A0080917A0037
:100AC000816080937A0080917A00806880937A00B8
:100AD0001092C10061E082E00E945F0261E083E069
:100AE0000E945F0261E084E00E945F0261E085E0B5
:100AF0000E945F0261E086E00E945F0261E087E0A1
:100B00000E945F0261E088E00E945F0261E089E08C
:100B10000E945F0261E08AE00E945F0260E08CE078
:100B20000E945F0261E08DE00E945F02E091DD01C2
:100B3000F091DE0182E08083E091D901F091DA0149
:100B40001082E091DB01F091DC018FEC8083109248
:100B5000E501E091E101F091E20186E08083E0911E
:100B6000DF01F091E001808180618083E091DF010D
:100B7000F091E001808188608083E091DF01F09155
:100B8000E001808180688083E091DF01F091E001E5
:100B900080818F7D80838FED8093000101E010E0E4
:100BA00018861F821A8619861C861B8643E050E031
:100BB0006AE471E0CE0107960E9450041A821982FD
:100BC0001C821B821E821D8240E050E061EA71E0BF
:100BD000CE0101960E9450040E949F0097FD1CC008
:100BE0008D871E86ED80FE802FEFE21AF20AB70194
:100BF000CE0101960E942904882371F329813A814C
:100C00008D819E81BE01635F7F4F820F931F0E9483
:100C1000AC0BFE82ED82E0CF8F8198850097A9F022
:100C200069817A816115710571F049855A852D8137
:100C30003E814217530738F00E94AC0B8D819E8194
:100C40009C878B8712C00E94330A89819A8198877A
:100C50008F838B819C819A8789878D819E819C87D8
:100C60008B871A8219821C821B821E821D828981B7
:100C70009A810E94330A1A8219821C821B821E8268
:100C80001D826F8178856115710531F04B855C851A
:100C9000CE0101960E9450046EE471E0CE010196EF
:100CA0000E940A04882381F061E0809106019091FE
:100CB0000701892B09F060E0862F90E090930701EF
:100CC0008093060182E0A7C061E571E0CE01019644
:100CD0000E940A04882381F061E0809108019091CC
:100CE0000901892B09F060E0862F90E090930901BB
:100CF0008093080183E08FC064E571E0CE01019626
:100D00000E940A04882381F061E080910A01909199
:100D10000B01892B09F060E0862F90E090930B0186
:100D200080930A0184E077C067E571E0CE01019607
:100D30000E940A04882381F061E080910C01909167
:100D40000D01892B09F060E0862F90E090930D0152
:100D500080930C0185E05FC06AE571E0CE010196E9
:100D60000E940A04882381F061E080910E01909135
:100D70000F01892B09F060E0862F90E090930F011E
:100D800080930E0186E047C06DE571E0CE010196CB
:100D90000E940A04882381F061E080911001909103
:100DA0001101892B09F060E0862F90E090931101EA
:100DB0008093100187E02FC060E671E0CE010196BC
:100DC0000E940A04882381F061E0809112019091D1
:100DD0001301892B09F060E0862F90E090931301B6
:100DE0008093120188E017C063E671E0CE0101969E
:100DF0000E940A04882389F061E080911401909197
:100E00001501892B09F060E0862F90E09093150181
:100E10008093140189E00E942F0289819A810E94A7
:100E2000330A0E948C009093C8018093C7010E94EE
:100E30005F038823C1F060916A0270916B02072EF4
:100E4000000C880B990B0E94BA0B20E030E040E8C0
:100E50005DE30E94190C6093C3017093C4018093F9
:100E6000C5019093C60166E671E0CE0107960E9427
:100E70000A04882309F4D3C00E945F03882309F47D
:100E8000C6C08BE691E00E94B50360916A02709142
:100E90006B02072E000C880B990B0E94BA0B20E006
:100EA00030E040E85DE30E94190C6B017C014B01CE
:100EB0005C016093C3017093C4018093C50190935A
:100EC000C6019B01AC010E949909882319F08AE7A9
:100ED00091E01AC026013701E89477F82FEF3FEF31
:100EE0004FE75FE7C301B2010E94990981110FC06A
:100EF0002FEF3FEF4FE75FE7C301B2010E94B30B53
:100F000018162CF48EE791E00E94B5037DC02FEFF8
:100F10003FEF4FE75FE4C701B6010E94940918163E
:100F20001CF482E891E0F0CF2FEF3FEF4FE75FEC4A
:100F3000C701B6010E94B30B87FDF3CF20E030E07C
:100F4000A901C701B6010E94B30B87FF11C0E09150
:100F5000CD01F091CE010190F081E02D6DE28DEC9C
:100F600091E0099546015701B7FAB094B7F8B094EB
:100F70002AE037ED43EA5BE3C501B4010E94F908BA
:100F80004B015C010E9465096B017C010E94B80B5A
:100F90009B01AC01C501B4010E94F8084B015C0142
:100FA0004AE0C701B6010E94C70386E891E00E94AB
:100FB000B50320E030E040E251E4C501B4010E94F5
:100FC000190C4B015C010E9465096B01E12CF12CAD
:100FD0004AE0C701B6010E94C703C701B6010E94DB
:100FE000B80B9B01AC01C501B4010E94F80820E0D8
:100FF00030E040E251E40E94190C0E94650980E053
:1010000090E04AE00E94C70388E891E006C08AE8C1
:1010100091E00E94B5038FE991E00E94B50362EA76
:1010200071E0CE0107960E940A04882389F061E0EE
:101030008091C1019091C201019709F460E0862F6F
:1010400090E09093C2018093C1018AE00E942F0238
:1010500066EA71E0CE0107960E940A04882329F10E
:101060000E948C009093C8018093C7016C01990F76
:10107000EE08FF08F7FE14C0E091CD01F091CE011B
:101080000190F081E02D6DE28DEC91E009956627ED
:101090007727CB016C197D098E099F094AE003C0AF
:1010A0004AE0C701B6010E94C70320E030E048E4EF
:1010B00054E46091C3017091C4018091C501909185
:1010C000C6010E94940987FD0CC01093C2010093D1
:1010D000C10161E08AE00E942F0284E291E00E9457
:1010E00090038091C7019091C8018032934094F0A1
:1010F0000E948C009093C8018093C7011093C20195
:101100000093C10161E08AE00E942F0284E191E036
:101110000E9490038CE00E9406028130910561F4E8
:101120009093C2018093C10161E08AE00E942F0286
:1011300081EB91E00E9490038F8198850E94330A91
:101140000E94D3012DCDEDECF1E01382128288EEE6
:1011500093E0A0E0B0E084839583A683B7838EE319
:1011600091E09183808385EC90E09587848784EC7F
:1011700090E09787868780EC90E0918B808B81EC64
:1011800090E0938B828B82EC90E0958B848B86EC45
:1011900090E0978B868B118E128E138E148E08958D
:1011A000A1E21A2EAA1BBB1BFD010DC0AA1FBB1F6B
:1011B000EE1FFF1FA217B307E407F50720F0A21BDD
:1011C000B30BE40BF50B661F771F881F991F1A944A
:1011D00069F760957095809590959B01AC01BD0174
:1011E000CF010895EE0FFF1F0590F491E02D0994B3
:1011F0005058BB27AA270E9410090C949D0C0E94EE
:101200008F0C38F00E94960C20F039F49F3F19F4AF
:1012100026F40C948C0C0EF4E095E7FB0C94860CF1
:10122000E92F0E94AE0C58F3BA17620773078407C0
:10123000950720F079F4A6F50C94D00C0EF4E09507
:101240000B2EBA2FA02D0B01B90190010C01CA0180
:10125000A0011124FF27591B99F0593F50F4503E2B
:1012600068F11A16F040A22F232F342F4427585F1D
:10127000F3CF469537952795A795F0405395C9F735
:101280007EF41F16BA0B620B730B840BBAF09150ED
:10129000A1F0FF0FBB1F661F771F881FC2F70EC08C
:1012A000BA0F621F731F841F48F48795779567955F
:1012B000B795F7959E3F08F0B0CF9395880F08F04B
:1012C0009927EE0F9795879508950E94B60C88F0A0
:1012D0009F5798F0B92F9927B751B0F0E1F0660FFA
:1012E000771F881F991F1AF0BA95C9F714C0B1303B
:1012F00091F00E94D00CB1E008950C94D00C672FAF
:10130000782F8827B85F39F0B93FCCF38695779569
:101310006795B395D9F73EF4909580957095619552
:101320007F4F8F4F9F4F08950E94F50B08F48FEF6A
:1013300008950E94F50B880B990B0895CF93DF93C6
:101340008230910510F482E090E0E0916E02F0911D
:101350006F0220E030E0C0E0D0E0309711F1408132
:10136000518148175907C0F04817590761F4828125
:101370009381209719F09B838A832BC090936F02EF
:1013800080936E0226C02115310519F042175307CC
:1013900018F49A01BE01DF01EF010280F381E02D14
:1013A000DCCF2115310509F1281B390B243031051B
:1013B00090F412968D919C9113976115710521F00F
:1013C000FB019383828304C090936F0280936E022B
:1013D000FD01329644C0FD01E20FF31F819391930A
:1013E000225031092D933C933AC020916C023091E8
:1013F0006D02232B41F42091360130913701309357
:101400006D0220936C022091340130913501211539
:10141000310541F42DB73EB7409138015091390163
:10142000241B350BE0916C02F0916D02E217F3077B
:10143000A0F42E1B3F0B2817390778F0AC014E5F44
:101440005F4F2417350748F04E0F5F1F50936D0212
:1014500040936C028193919302C0E0E0F0E0CF01F1
:10146000DF91CF9108950F931F93CF93DF93009750
:1014700009F48CC0FC0132971382128200916E0233
:1014800010916F020115110581F420813181820FC5
:10149000931F20916C0230916D022817390779F55E
:1014A000F0936D02E0936C0271C0D80140E050E00F
:1014B000AE17BF0750F412962D913C911397AD01D2
:1014C0002115310509F1D901F3CF9D01DA013383EB
:1014D000228360817181860F971F8217930769F4B9
:1014E000EC0128813981260F371F2E5F3F4F318352
:1014F00020838A819B8193838283452B29F4F093F7
:101500006F02E0936E0242C01396FC93EE93129723
:10151000ED01499159919E01240F351FE217F30700
:1015200071F480819181840F951F029611969C938E
:101530008E938281938113969C938E931297E0E011
:10154000F0E0D80112968D919C911397009719F0B5
:10155000F8018C01F6CF8D919C9198012E5F3F4F41
:10156000820F931F20916C0230916D02281739076A
:1015700069F4309729F410926F0210926E0202C043
:101580001382128210936D0200936C02DF91CF914F
:101590001F910F910895A0E0B0E0E1EDFAE00C9406
:1015A000DB0CEC01009721F4CB010E949E09B8C02E
:1015B000FC01E60FF71F9C0122503109E217F307E7
:1015C00008F4ACC0D9010D911C91119706171707AB
:1015D000B0F00530110508F49FC0C80104978617C4
:1015E000970708F499C002501109061B170B0193C5
:1015F00011936D937C93CF010E94330A8DC05B01E0
:10160000A01AB10A4C01800E911EA0916E02B091F9
:101610006F0240E050E0E12CF12C109709F44AC031
:10162000A815B905D1F56D907C901197630182E002
:10163000C80ED11CCA14DB0480F1A3014A195B094E
:101640006A0182E0C80ED11C1296BC9012971396C4
:10165000AC91B5E0CB16D10440F0B282A3835183A4
:101660004083D9016D937C930AC00E5F1F4FC30165
:10167000800F911FF90191838083EB2DFA2FE114E4
:10168000F10431F0D7011396FC93EE93129744C006
:10169000F0936F02E0936E023FC08D919C91119781
:1016A0004817590708F4AC017D0112960D90BC91C2
:1016B000A02DB3CF80916C0290916D028815990591
:1016C000E1F446175707C8F4809134019091350131
:1016D000009741F48DB79EB7409138015091390180
:1016E000841B950BE817F907C8F4F0936D02E0939B
:1016F0006C02F901718360830FC0CB010E949E09C7
:101700007C01009759F0A801BE010E949A0BCE01FE
:101710000E94330AC70104C0CE0102C080E090E0FD
:10172000CDB7DEB7EEE00C94F70C81E090E0F894D2
:101730000C940E0DFB01DC0102C001900D92415092
:101740005040D8F70895FB01DC018D91019080197C
:101750000110D9F3990B0895FB01DC0101900D9262
:101760000020E1F708950E94F50B08F481E0089548
:10177000E89409C097FB3EF490958095709561952B
:101780007F4F8F4F9F4F9923A9F0F92F96E9BB27E1
:101790009395F695879577956795B795F111F8CF5D
:1017A000FAF4BB0F11F460FF1BC06F5F7F4F8F4FC8
:1017B0009F4F16C0882311F096E911C0772321F0BE
:1017C0009EE8872F762F05C0662371F096E8862F56
:1017D00070E060E02AF09A95660F771F881FDAF7AD
:1017E000880F9695879597F90895990F0008550FDA
:1017F000AA0BE0E8FEEF16161706E807F907C0F097
:1018000012161306E407F50798F0621B730B840B9E
:10181000950B39F40A2661F0232B242B252B21F478
:1018200008950A2609F4A140A6958FEF811D811D18
:1018300008950E942C0C0C949D0C0E948F0C38F083
:101840000E94960C20F0952311F00C94860C0C94B9
:101850008C0C11240C94D10C0E94AE0C70F3959F4B
:10186000C1F3950F50E0551F629FF001729FBB2797
:10187000F00DB11D639FAA27F00DB11DAA1F649F33
:101880006627B00DA11D661F829F2227B00DA11DE6
:10189000621F739FB00DA11D621F839FA00D611D6C
:1018A000221F749F3327A00D611D231F849F600D8D
:1018B000211D822F762F6A2F11249F5750409AF0B6
:1018C000F1F088234AF0EE0FFF1FBB1F661F771F42
:1018D000881F91505040A9F79E3F510580F00C940D
:1018E000860C0C94D10C5F3FE4F3983ED4F38695BC
:1018F00077956795B795F795E7959F5FC1F7FE2BAD
:10190000880F911D9695879597F9089597F99F6788
:1019100080E870E060E008959FEF80EC0895002477
:101920000A941616170618060906089500240A9444
:1019300012161306140605060895092E0394000CCA
:1019400011F4882352F0BB0F40F4BF2B11F460FF59
:1019500004C06F5F7F4F8F4F9F4F089557FD905882
:10196000440F551F59F05F3F71F04795880F97FB63
:10197000991F61F09F3F79F087950895121613061D
:101980001406551FF2CF4695F1DF08C0161617064C
:101990001806991FF1CF8695710561050894089581
:1019A000E894BB2766277727CB0197F908952F92F4
:1019B0003F924F925F926F927F928F929F92AF92DF
:1019C000BF92CF92DF92EF92FF920F931F93CF932C
:1019D000DF93CDB7DEB7CA1BDB0B0FB6F894DEBFC3
:1019E0000FBECDBF09942A88398848885F846E84E9
:1019F0007D848C849B84AA84B984C884DF80EE8033
:101A0000FD800C811B81AA81B981CE0FD11D0FB63B
:101A1000F894DEBF0FBECDBFED010895F894FFCF5F
:101A2000204320000100010001000100010001002D
:101A3000010001000100010001000100010001009E
:101A4000010001000100010001000100010001008E
:101A500001000100000070028000000000006A0127
:101A6000E600330111012501B1014C626A007231B7
:101A70000072320072330072340072350072360028
:101A800072370072380074656D700054656D706552
:101A9000726174757265203D20006E616E00696E22
:101AA00066006F7666002E004300436F6D6D756EA5
:101AB00069636174696F6E204572726F7221000DE7
:0C1AC0000A0073657200736D6F6B6500A7
:00000001FF
