:100000000C9462000C948A000C948A000C948A0070
:100010000C948A000C948A000C948A000C948A0038
:100020000C948A000C948A000C948A000C948A0028
:100030000C948A000C948A000C948A000C948A0018
:100040000C94A2040C948A000C9470040C944A043E
:100050000C948A000C948A000C948A000C948A00F8
:100060000C948A000C948A000000000024002700F1
:100070002A0000000000250028002B0000000008D6
:10008000000201000003040700000000000000005F
:1000900000000000230026002900040404040404D6
:1000A0000404020202020202030303030303010227
:1000B00004081020408001020408102001020408F6
:1000C0001020EC0411241FBECFEFD8E0DEBFCDBF5F
:1000D00011E0A0E0B1E0EEEFF9E102C005900D9271
:1000E000AA37B107D9F722E0AAE7B1E001C01D9213
:1000F000AC36B207E1F710E0C2E6D0E004C02197C9
:10010000FE010E94E108C136D107C9F70E945305DC
:100110000C94FD0C0C94000080E480937C00809192
:100120007A00806480937A0080917A0086FDFCCF0B
:10013000809178002091790090E0922B08952FB75C
:10014000F8948091B9019091BA01A091BB01B0914E
:10015000BC012FBF8093C5019093C601A093C70136
:10016000B093C801E091BD01F091BE010680F78116
:10017000E02D8DEB91E0099597FF26C02FB7F894FD
:100180008091B9019091BA01A091BB01B091BC01DD
:100190002FBF4091C5015091C6016091C701709178
:1001A000C801841B950BA60BB70B4091C101509160
:1001B000C2016091C3017091C40184179507A6071D
:1001C000B70780F28FEF9FEF08950895CF92DF92E7
:1001D000EF92FF920F931F93CF93DF936C017A01FD
:1001E0008B01C0E0D0E0CE15DF0589F0D8016D911C
:1001F0008D01D601ED91FC910190F081E02DC601B9
:100200000995892B11F47E0102C02196ECCFC7011C
:10021000DF91CF911F910F91FF90EF90DF90CF90E2
:100220000895FC01918D828D981761F0828DDF0118
:10023000A80FB11D5D968C91928D9F5F9F73928FD9
:1002400090E008958FEF9FEF0895FC01918D828DCE
:10025000981731F0828DE80FF11D858D90E008959B
:100260008FEF9FEF0895FC01918D228D892F90E0F3
:10027000805C9F4F821B91098F73992708958DEBA6
:1002800091E00E94330121E0892B09F420E0822FC4
:100290000895FC01848DDF01A80FB11DA35ABF4F43
:1002A0002C91848D90E001968F739927848FA68975
:1002B000B7892C93A089B1898C9180648C93938D9C
:1002C000848D981306C00288F389E02D80818F7D8C
:1002D00080830895EF92FF920F931F93CF93DF9344
:1002E000EC0181E0888F9B8D8C8D981305C0E88987
:1002F000F989808185FD24C0F62E0B8D10E00F5FFB
:100300001F4F0F731127E02E8C8DE8120CC00FB613
:1003100007FCFACFE889F989808185FFF5CFCE0106
:100320000E944901F1CF8B8DFE01E80FF11DE35AC8
:10033000FF4FF0820B8FEA89FB898081806207C0C2
:10034000EE89FF896083E889F989808180648083F0
:1003500081E090E0DF91CF911F910F91FF90EF909E
:100360000895CF93DF93EC01888D8823C9F0EA8943
:10037000FB89808185FD05C0A889B9898C9186FD9E
:100380000FC00FB607FCF5CF808185FFF2CFA8899B
:10039000B9898C9185FFEDCFCE010E944901E7CF4D
:1003A000DF91CF91089580E090E0892B29F00E94A1
:1003B0003F0181110C9400000895833081F028F4EE
:1003C000813099F08230A1F008958730A9F088300B
:1003D000B9F08430D1F4809180008F7D03C080918A
:1003E00080008F7780938000089584B58F7702C056
:1003F00084B58F7D84BD08958091B0008F7703C050
:100400008091B0008F7D8093B0000895CF93DF93EB
:10041000282F30E0F901E458FF4F8491F901E255AB
:10042000FF4FD491F901E656FF4FC491CC2391F0D0
:1004300081110E94DD01EC2FF0E0EE0FFF1FE0576D
:10044000FF4FA591B491EC91ED2381E090E021F470
:1004500080E002C080E090E0DF91CF9108951F938B
:10046000CF93DF93282F30E0F901E458FF4F8491B8
:10047000F901E255FF4FD491F901E656FF4FC491BF
:10048000CC23C9F0162F81110E94DD01EC2FF0E082
:10049000EE0FFF1FEE58FF4FA591B4918FB7F89460
:1004A000111105C09C91ED2FE095E92302C0EC915C
:1004B000ED2BEC938FBFDF91CF911F910895CF93D8
:1004C000DF9390E0FC01E255FF4F2491FC01E656DA
:1004D000FF4F8491882361F190E0880F991FFC0100
:1004E000E859FF4FC591D491FC01EE58FF4FA591FB
:1004F000B491611109C09FB7F89488812095822337
:100500008883EC912E230BC0623061F49FB7F8947E
:100510003881822F809583238883EC912E2B2C9316
:100520009FBF06C08FB7F894E8812E2B28838FBF1A
:10053000DF91CF9108954F925F926F927F92AF9229
:10054000BF92CF92DF92EF92FF921F93CF93DF93F0
:10055000C0E0D0E083E0E82EF12C9FE0C92ED12C42
:100560002BE8A22EBB24B394412C512C320143948E
:1005700060E08BE00E942F0261E08BE00E945F024E
:10058000C7010197F1F760E08BE00E945F02C601AE
:100590000197F1F78BE00E940602F5013197F1F720
:1005A000892B61F0D301C2010C2E04C0880F991F62
:1005B000AA1FBB1F0A94D2F7182B0CC0D301C2018B
:1005C0000C2E04C0880F991FAA1FBB1F0A94D2F7D4
:1005D000809518232196C830D10551F6812FDF91DF
:1005E000CF911F91FF90EF90DF90CF90BF90AF9091
:1005F0007F906F905F904F900895CF92DF92EF922F
:10060000FF920F931F93CF93DF93C0E0D0E093E06E
:10061000E92EF12C082F10E02BE3C22EDD24D39419
:1006200060E08BE00E942F0261E08BE00E945F029D
:10063000C7010197F1F7B8010C2E02C075956795B7
:100640000A94E2F7617077278BE00E942F02C601BF
:100650000197F1F760E08BE00E945F02C70101970C
:10066000F1F72196C830D105D9F6DF91CF911F91CE
:100670000F91FF90EF90DF90CF90089560E08BE0B6
:100680000E942F0261E08BE00E945F028BEC97E0FA
:100690000197F1F760E08BE00E945F028BE891E048
:1006A0000197F1F78BE00E940602892B31F48BE36E
:1006B00096E00197F1F781E0089580E00895CF93E7
:1006C000DF93EC016A8182E00E942F026C8183E05B
:1006D0000E942F026E8184E00E942F02688585E0CF
:1006E0000E942F026A8586E00E942F026C8587E0B7
:1006F0000E942F026E8588E00E942F02688989E09F
:10070000DF91CF910C942F02009769F0FC010190CA
:100710000020E9F73197AF01481B590BBC018DEB65
:1007200091E00C94E60080E090E008958F929F9213
:10073000AF92BF920F931F93CF93DF93CDB7DEB7E6
:10074000A1970FB6F894DEBF0FBECDBF19A24230FD
:1007500008F44AE08E010F5D1F4F842E912CA12CCE
:10076000B12CA50194010E94BF08E62FB901CA016E
:1007700001501109EA3014F4E05D01C0E95CD801D0
:10078000EC93232B242B252B61F7C8010E948403B3
:10079000A1960FB6F894DEBF0FBECDBFDF91CF910B
:1007A0001F910F91BF90AF909F908F9008950E94DE
:1007B000840BFC0124813581232B31F421E0611568
:1007C0007105A1F0FB0108C0FC01808191816115D8
:1007D000710531F421E0FC018081882339F005C0E6
:1007E0000E94920B21E0892B09F020E0822F0895CE
:1007F0000F931F93CF93DF93EC018881998100972A
:1008000029F02A813B812617370788F48B016F5F17
:100810007F4F0E94BA0A009761F0998388831B83F7
:100820000A832C813D81232B11F4FC01108281E08D
:1008300001C080E0DF91CF911F910F910895EF9259
:10084000FF920F931F93CF93DF93EC017B018A01FB
:10085000BA010E94F8032881398181110DC0211548
:10086000310519F0C9010E94220A198218821D82DD
:100870001C821B821A8206C01D830C83B701C9012A
:100880000E949B0BCE01DF91CF911F910F91FF90A2
:10089000EF9008951F920F920FB60F9211242F938D
:1008A0003F934F935F936F937F938F939F93AF93F8
:1008B000BF93EF93FF938DEB91E00E944901FF916D
:1008C000EF91BF91AF919F918F917F916F915F91C8
:1008D0004F913F912F910F900FBE0F901F90189541
:1008E0001F920F920FB60F9211242F938F939F9305
:1008F000EF93FF93E091CD01F091CE018081E091E3
:10090000D301F091D40182FD12C090818091D60173
:100910008F5F8F732091D701821751F0E091D6013C
:10092000F0E0E354FE4F958F8093D60101C08081A3
:10093000FF91EF919F918F912F910F900FBE0F908C
:100940001F9018951F920F920FB60F9211242F939C
:100950003F938F939F93AF93BF938091B9019091F1
:10096000BA01A091BB01B091BC0130917E0123E09E
:10097000230F2D3720F40196A11DB11D05C026E8D7
:10098000230F0296A11DB11D20937E018093B90112
:100990009093BA01A093BB01B093BC0180917A01FE
:1009A00090917B01A0917C01B0917D010196A11DE8
:1009B000B11D80937A0190937B01A0937C01B09349
:1009C0007D01BF91AF919F918F913F912F910F909A
:1009D0000FBE0F901F9018951092C0011092BF018A
:1009E00088EE93E0A0E0B0E08093C1019093C20153
:1009F000A093C301B093C4018EE191E09093BE0136
:100A00008093BD0185EC90E09093CA018093C90169
:100A100084EC90E09093CC018093CB0180EC90E04B
:100A20009093CE018093CD0181EC90E09093D00122
:100A30008093CF0182EC90E09093D2018093D1011A
:100A400086EC90E09093D4018093D3011092D6016C
:100A50001092D7011092D8011092D90160E08BE07A
:100A60000E945F02E9EBF0E0E491E0935A02E5EACC
:100A7000F0E0E491F0E0EE0FFF1FE057FF4F8591AB
:100A8000949190935C0280935B02109265021092A5
:100A9000670210926602E5E6F2E0129282E0ED351E
:100AA000F807D9F70895CF93DF93CDB7DEB72E9728
:100AB0000FB6F894DEBF0FBECDBF789484B58260C8
:100AC00084BD84B5816084BD85B5826085BD85B5F2
:100AD000816085BD80916E00816080936E00109270
:100AE00081008091810082608093810080918100EB
:100AF000816080938100809180008160809380007C
:100B00008091B10084608093B1008091B0008160D9
:100B10008093B00080917A00846080937A00809105
:100B20007A00826080937A0080917A00816080935D
:100B30007A0080917A00806880937A001092C100D8
:100B400061E082E00E945F0261E083E00E945F0258
:100B500061E084E00E945F0261E085E00E945F0244
:100B600061E086E00E945F0261E087E00E945F0230
:100B700061E088E00E945F0261E089E00E945F021C
:100B800061E08AE00E945F0260E08CE00E945F0208
:100B9000E091CD01F091CE0182E08083E091C90126
:100BA000F091CA011082E091CB01F091CC018FEC61
:100BB00080831092D501E091D101F091D20186E0BD
:100BC0008083E091CF01F091D001808180618083AA
:100BD000E091CF01F091D001808188608083E09125
:100BE000CF01F091D001808180688083E091CF01B6
:100BF000F091D00180818F7D80838FED8093000103
:100C000001E010E018861F821A8619861C861B8652
:100C100043E050E06AE271E0CE0107960E941F04B3
:100C20001A8219821C821B821E821D8240E050E0C3
:100C30006EE671E0CE0101960E941F040E949F00A3
:100C400097FD1CC08D871E86ED80FE802FEFE21A77
:100C5000F20AB701CE0101960E94F803882371F3CE
:100C600029813A818D819E81BE01635F7F4F820F12
:100C7000931F0E949B0BFE82ED82E0CF8F819885AF
:100C80000097A9F069817A816115710571F0498534
:100C90005A852D813E814217530738F00E949B0BE5
:100CA0008D819E819C878B8712C00E94220A898138
:100CB0009A8198878F838B819C819A8789878D8180
:100CC0009E819C878B871A8219821C821B821E82BE
:100CD0001D8289819A810E94220A1A8219821C82AD
:100CE0001B821E821D826F8178856115710531F02E
:100CF0004B855C85CE0101960E941F046EE271E077
:100D0000CE0101960E94D903882381F061E0809191
:100D1000810190918201892B09F060E0862F90E09B
:100D2000909382018093810182E0A7C061E371E02A
:100D3000CE0101960E94D903882381F061E0809161
:100D4000830190918401892B09F060E0862F90E067
:100D5000909384018093830183E08FC064E371E00A
:100D6000CE0101960E94D903882381F061E0809131
:100D7000850190918601892B09F060E0862F90E033
:100D8000909386018093850184E077C067E371E0EA
:100D9000CE0101960E94D903882381F061E0809101
:100DA000870190918801892B09F060E0862F90E0FF
:100DB000909388018093870185E05FC06AE371E0CA
:100DC000CE0101960E94D903882381F061E08091D1
:100DD000890190918A01892B09F060E0862F90E0CB
:100DE00090938A018093890186E047C06DE371E0AA
:100DF000CE0101960E94D903882381F061E08091A1
:100E00008B0190918C01892B09F060E0862F90E096
:100E100090938C0180938B0187E02FC060E471E098
:100E2000CE0101960E94D903882381F061E0809170
:100E30008D0190918E01892B09F060E0862F90E062
:100E400090938E0180938D0188E017C063E471E078
:100E5000CE0101960E94D903882389F061E0809138
:100E60008F0190919001892B09F060E0862F90E02E
:100E70009093900180938F0189E00E942F028981D5
:100E80009A810E94220A66E471E0CE0107960E94D0
:100E9000D903882309F4F7C00E943E03882309F48C
:100EA000F2C08CEC0E94FD0284E40E94FD020E94CC
:100EB0009B028823E1F30E943E03882309F4E3C0E8
:100EC0008CEC0E94FD028EEB0E94FD020E949B02B0
:100ED00090E09093B8018093B7010E949B0220910B
:100EE000B7013091B801382B3093B8012093B70186
:100EF0008BE491E00E9484036091B7017091B80186
:100F0000072E000C880B990B0E94A90B20E030E003
:100F100040E85DE30E94080C6B017C014B015C0121
:100F20006093B3017093B4018093B5019093B601BF
:100F30009B01AC010E948809882319F08AE591E0A1
:100F40001AC026013701E89477F82FEF3FEF4FE7FB
:100F50005FE7C301B2010E94880981110FC02FEF22
:100F60003FEF4FE75FE7C301B2010E94A20B1816E3
:100F70002CF48EE591E00E9484037DC02FEF3FEFBB
:100F80004FE75FE4C701B6010E94830918161CF4FD
:100F900082E691E0F0CF2FEF3FEF4FE75FECC70124
:100FA000B6010E94A20B87FDF3CF20E030E0A9013B
:100FB000C701B6010E94A20B87FF11C0E091BD01DD
:100FC000F091BE010190F081E02D6DE28DEB91E09A
:100FD000099546015701B7FAB094B7F8B0942AE0E2
:100FE00037ED43EA5BE3C501B4010E94E8084B0119
:100FF0005C010E9454096B017C010E94A70B9B01BC
:10100000AC01C501B4010E94E7084B015C014AE054
:10101000C701B6010E94960386E691E00E94840310
:1010200020E030E040E251E4C501B4010E94080C28
:101030004B015C010E9454096B01E12CF12C4AE048
:10104000C701B6010E949603C701B6010E94A70B13
:101050009B01AC01C501B4010E94E70820E030E02B
:1010600040E251E40E94080C0E94540980E090E0A4
:101070004AE00E94960388E691E00E9484038CE691
:1010800091E00E9484036FE671E0CE0107960E9412
:10109000D903882389F061E08091B1019091B20178
:1010A000019709F460E0862F90E09093B20180935D
:1010B000B1018AE00E942F0263E771E0CE0107963A
:1010C0000E94D903882369F00E948C009093B0019C
:1010D0008093AF014AE062E77BE680E090E00E9407
:1010E000960320E030E048E454E46091B30170914D
:1010F000B4018091B5019091B6010E94830987FDEA
:101100000CC01093B2010093B10161E08AE00E942B
:101110002F028FE991E00E945F038091AF019091CF
:10112000B0018032934094F00E948C009093B00103
:101130008093AF011093B2010093B10161E08AE0A6
:101140000E942F0284E091E00E945F038CE00E94E5
:1011500006028130910561F49093B2018093B10150
:1011600061E08AE00E942F028FE891E00E945F0315
:101170008F8198850E94220A0E94D30143CDA1E26B
:101180001A2EAA1BBB1BFD010DC0AA1FBB1FEE1F01
:10119000FF1FA217B307E407F50720F0A21BB30B4C
:1011A000E40BF50B661F771F881F991F1A9469F7C8
:1011B00060957095809590959B01AC01BD01CF0124
:1011C0000895EE0FFF1F0590F491E02D09945058FB
:1011D000BB27AA270E94FF080C948C0C0E947E0C4F
:1011E00038F00E94850C20F039F49F3F19F426F462
:1011F0000C947B0C0EF4E095E7FB0C94750CE92F36
:101200000E949D0C58F3BA1762077307840795076D
:1012100020F079F4A6F50C94BF0C0EF4E0950B2E9B
:10122000BA2FA02D0B01B90190010C01CA01A00138
:101230001124FF27591B99F0593F50F4503E68F193
:101240001A16F040A22F232F342F4427585FF3CFD4
:10125000469537952795A795F0405395C9F77EF4A5
:101260001F16BA0B620B730B840BBAF09150A1F0EE
:10127000FF0FBB1F661F771F881FC2F70EC0BA0F74
:10128000621F731F841F48F4879577956795B795FC
:10129000F7959E3F08F0B0CF9395880F08F09927F7
:1012A000EE0F9795879508950E94A50C88F09F579B
:1012B00098F0B92F9927B751B0F0E1F0660F771F7A
:1012C000881F991F1AF0BA95C9F714C0B13091F070
:1012D0000E94BF0CB1E008950C94BF0C672F782FCB
:1012E0008827B85F39F0B93FCCF386957795679535
:1012F000B395D9F73EF490958095709561957F4FA1
:101300008F4F9F4F08950E94E40B08F48FEF0895CC
:101310000E94E40B880B990B0895CF93DF938230E2
:10132000910510F482E090E0E0916A02F0916B0286
:1013300020E030E0C0E0D0E0309711F140815181F1
:1013400048175907C0F04817590761F48281938103
:10135000209719F09B838A832BC090936B02809314
:101360006A0226C02115310519F04217530718F4F7
:101370009A01BE01DF01EF010280F381E02DDCCF95
:101380002115310509F1281B390B2430310590F462
:1013900012968D919C9113976115710521F0FB01B7
:1013A0009383828304C090936B0280936A02FD0151
:1013B000329644C0FD01E20FF31F819391932250B6
:1013C00031092D933C933AC0209168023091690213
:1013D000232B41F4209116013091170130936902BB
:1013E00020936802209114013091150121153105D7
:1013F00041F42DB73EB74091180150911901241BBB
:10140000350BE0916802F0916902E217F307A0F44E
:101410002E1B3F0B2817390778F0AC014E5F5F4F4A
:101420002417350748F04E0F5F1F50936902409311
:1014300068028193919302C0E0E0F0E0CF01DF9178
:10144000CF9108950F931F93CF93DF93009709F4E3
:101450008CC0FC0132971382128200916A021091B3
:101460006B020115110581F420813181820F931FD8
:1014700020916802309169022817390779F5F093B5
:101480006902E093680271C0D80140E050E0AE17F5
:10149000BF0750F412962D913C911397AD01211581
:1014A000310509F1D901F3CF9D01DA01338322839C
:1014B00060817181860F971F8217930769F4EC0191
:1014C00028813981260F371F2E5F3F4F31832083BC
:1014D0008A819B8193838283452B29F4F0936B024D
:1014E000E0936A0242C01396FC93EE931297ED01CB
:1014F000499159919E01240F351FE217F30771F4AA
:1015000080819181840F951F029611969C938E93F2
:101510008281938113969C938E931297E0E0F0E082
:10152000D80112968D919C911397009719F0F801AC
:101530008C01F6CF8D919C9198012E5F3F4F820FC9
:10154000931F20916802309169022817390769F4C6
:10155000309729F410926B0210926A0202C0138233
:1015600012821093690200936802DF91CF911F915C
:101570000F910895A0E0B0E0E0ECFAE00C94CA0C02
:10158000EC01009721F4CB010E948D09B8C0FC0149
:10159000E60FF71F9C0122503109E217F30708F408
:1015A000ACC0D9010D911C91119706171707B0F027
:1015B0000530110508F49FC0C801049786179707E6
:1015C00008F499C002501109061B170B01931193DF
:1015D0006D937C93CF010E94220A8DC05B01A01AFB
:1015E000B10A4C01800E911EA0916A02B0916B026B
:1015F00040E050E0E12CF12C109709F44AC0A81506
:10160000B905D1F56D907C901197630182E0C80E09
:10161000D11CCA14DB0480F1A3014A195B096A01D9
:1016200082E0C80ED11C1296BC9012971396AC9112
:10163000B5E0CB16D10440F0B282A383518340833E
:10164000D9016D937C930AC00E5F1F4FC301800FB9
:10165000911FF90191838083EB2DFA2FE114F1049E
:1016600031F0D7011396FC93EE93129744C0F09398
:101670006B02E0936A023FC08D919C9111974817CD
:10168000590708F4AC017D0112960D90BC91A02D74
:10169000B3CF809168029091690288159905E1F4B1
:1016A00046175707C8F480911401909115010097CF
:1016B00041F48DB79EB74091180150911901841BD8
:1016C000950BE817F907C8F4F0936902E0936802F4
:1016D000F901718360830FC0CB010E948D097C01E9
:1016E000009759F0A801BE010E94890BCE010E940B
:1016F000220AC70104C0CE0102C080E090E0CDB74D
:10170000DEB7EEE00C94E60C81E090E0F8940C94E7
:10171000FD0CFB01DC0102C001900D9241505040D4
:10172000D8F70895FB01DC018D910190801901101B
:10173000D9F3990B0895FB01DC0101900D92002073
:10174000E1F708950E94E40B08F481E00895E8941D
:1017500009C097FB3EF490958095709561957F4FF9
:101760008F4F9F4F9923A9F0F92F96E9BB279395A7
:10177000F695879577956795B795F111F8CFFAF4B7
:10178000BB0F11F460FF1BC06F5F7F4F8F4F9F4FE8
:1017900016C0882311F096E911C0772321F09EE846
:1017A000872F762F05C0662371F096E8862F70E0AC
:1017B00060E02AF09A95660F771F881FDAF7880F86
:1017C0009695879597F90895990F0008550FAA0BDC
:1017D000E0E8FEEF16161706E807F907C0F0121644
:1017E0001306E407F50798F0621B730B840B950B47
:1017F00039F40A2661F0232B242B252B21F408959C
:101800000A2609F4A140A6958FEF811D811D089538
:101810000E941B0C0C948C0C0E947E0C38F00E94D1
:10182000850C20F0952311F00C94750C0C947B0C16
:1018300011240C94C00C0E949D0C70F3959FC1F371
:10184000950F50E0551F629FF001729FBB27F00D6E
:10185000B11D639FAA27F00DB11DAA1F649F6627C3
:10186000B00DA11D661F829F2227B00DA11D621F12
:10187000739FB00DA11D621F839FA00D611D221FCC
:10188000749F3327A00D611D231F849F600D211DB0
:10189000822F762F6A2F11249F5750409AF0F1F033
:1018A00088234AF0EE0FFF1FBB1F661F771F881F9C
:1018B00091505040A9F79E3F510580F00C94750C53
:1018C0000C94C00C5F3FE4F3983ED4F38695779573
:1018D0006795B795F795E7959F5FC1F7FE2B880F42
:1018E000911D9695879597F9089597F99F6780E8D8
:1018F00070E060E008959FEF80EC089500240A9462
:101900001616170618060906089500240A941216DA
:101910001306140605060895092E0394000C11F40D
:10192000882352F0BB0F40F4BF2B11F460FF04C0BA
:101930006F5F7F4F8F4F9F4F089557FD9058440F13
:10194000551F59F05F3F71F04795880F97FB991F1E
:1019500061F09F3F79F087950895121613061406DB
:10196000551FF2CF4695F1DF08C016161706180668
:10197000991FF1CF86957105610508940895E89443
:10198000BB2766277727CB0197F908952F923F92BF
:101990004F925F926F927F928F929F92AF92BF927F
:1019A000CF92DF92EF92FF920F931F93CF93DF932B
:1019B000CDB7DEB7CA1BDB0B0FB6F894DEBF0FBE88
:1019C000CDBF09942A88398848885F846E847D84D5
:1019D0008C849B84AA84B984C884DF80EE80FD80D7
:1019E0000C811B81AA81B981CE0FD11D0FB6F8944D
:0E19F000DEBF0FBECDBFED010895F894FFCF0E
:1019FE002043200001000100010001000100010050
:101A0E000100010000006C028000000000006A016D
:101A1E00E600330111012501B1014C626A007231F9
:101A2E00007232007233007234007235007236006A
:101A3E0072370072380074656D700054656D706594
:101A4E00726174757265203D20006E616E00696E64
:101A5E0066006F7666002E00C2B043000D0A00735A
:0A1A6E006572006B6E6F636B000081
:00000001FF
